{
  "contractName": "InfUnigeNFT",
  "abi": [
    {
      "inputs": [],
      "stateMutability": "payable",
      "type": "constructor"
    },
    {
      "inputs": [
        {
          "internalType": "address",
          "name": "target",
          "type": "address"
        }
      ],
      "name": "AddressEmptyCode",
      "type": "error"
    },
    {
      "inputs": [
        {
          "internalType": "uint256",
          "name": "amount",
          "type": "uint256"
        }
      ],
      "name": "DeploymentWithETH",
      "type": "error"
    },
    {
      "inputs": [
        {
          "internalType": "address",
          "name": "sender",
          "type": "address"
        },
        {
          "internalType": "uint256",
          "name": "balance",
          "type": "uint256"
        },
        {
          "internalType": "uint256",
          "name": "needed",
          "type": "uint256"
        },
        {
          "internalType": "uint256",
          "name": "tokenId",
          "type": "uint256"
        }
      ],
      "name": "ERC1155InsufficientBalance",
      "type": "error"
    },
    {
      "inputs": [
        {
          "internalType": "address",
          "name": "approver",
          "type": "address"
        }
      ],
      "name": "ERC1155InvalidApprover",
      "type": "error"
    },
    {
      "inputs": [
        {
          "internalType": "uint256",
          "name": "idsLength",
          "type": "uint256"
        },
        {
          "internalType": "uint256",
          "name": "valuesLength",
          "type": "uint256"
        }
      ],
      "name": "ERC1155InvalidArrayLength",
      "type": "error"
    },
    {
      "inputs": [
        {
          "internalType": "address",
          "name": "operator",
          "type": "address"
        }
      ],
      "name": "ERC1155InvalidOperator",
      "type": "error"
    },
    {
      "inputs": [
        {
          "internalType": "address",
          "name": "receiver",
          "type": "address"
        }
      ],
      "name": "ERC1155InvalidReceiver",
      "type": "error"
    },
    {
      "inputs": [
        {
          "internalType": "address",
          "name": "sender",
          "type": "address"
        }
      ],
      "name": "ERC1155InvalidSender",
      "type": "error"
    },
    {
      "inputs": [
        {
          "internalType": "address",
          "name": "operator",
          "type": "address"
        },
        {
          "internalType": "address",
          "name": "owner",
          "type": "address"
        }
      ],
      "name": "ERC1155MissingApprovalForAll",
      "type": "error"
    },
    {
      "inputs": [
        {
          "internalType": "address",
          "name": "implementation",
          "type": "address"
        }
      ],
      "name": "ERC1967InvalidImplementation",
      "type": "error"
    },
    {
      "inputs": [],
      "name": "ERC1967NonPayable",
      "type": "error"
    },
    {
      "inputs": [
        {
          "internalType": "uint256",
          "name": "numerator",
          "type": "uint256"
        },
        {
          "internalType": "uint256",
          "name": "denominator",
          "type": "uint256"
        }
      ],
      "name": "ERC2981InvalidDefaultRoyalty",
      "type": "error"
    },
    {
      "inputs": [
        {
          "internalType": "address",
          "name": "receiver",
          "type": "address"
        }
      ],
      "name": "ERC2981InvalidDefaultRoyaltyReceiver",
      "type": "error"
    },
    {
      "inputs": [
        {
          "internalType": "uint256",
          "name": "tokenId",
          "type": "uint256"
        },
        {
          "internalType": "uint256",
          "name": "numerator",
          "type": "uint256"
        },
        {
          "internalType": "uint256",
          "name": "denominator",
          "type": "uint256"
        }
      ],
      "name": "ERC2981InvalidTokenRoyalty",
      "type": "error"
    },
    {
      "inputs": [
        {
          "internalType": "uint256",
          "name": "tokenId",
          "type": "uint256"
        },
        {
          "internalType": "address",
          "name": "receiver",
          "type": "address"
        }
      ],
      "name": "ERC2981InvalidTokenRoyaltyReceiver",
      "type": "error"
    },
    {
      "inputs": [],
      "name": "FailedCall",
      "type": "error"
    },
    {
      "inputs": [],
      "name": "InsufficientETH",
      "type": "error"
    },
    {
      "inputs": [],
      "name": "InvalidBatchLength",
      "type": "error"
    },
    {
      "inputs": [],
      "name": "InvalidInitialization",
      "type": "error"
    },
    {
      "inputs": [],
      "name": "InvalidRecipient",
      "type": "error"
    },
    {
      "inputs": [],
      "name": "MaxCardsReached",
      "type": "error"
    },
    {
      "inputs": [],
      "name": "NotEnoughCardsLeft",
      "type": "error"
    },
    {
      "inputs": [],
      "name": "NotInitializing",
      "type": "error"
    },
    {
      "inputs": [
        {
          "internalType": "address",
          "name": "have",
          "type": "address"
        },
        {
          "internalType": "address",
          "name": "want",
          "type": "address"
        }
      ],
      "name": "OnlyCoordinatorCanFulfill",
      "type": "error"
    },
    {
      "inputs": [
        {
          "internalType": "address",
          "name": "owner",
          "type": "address"
        }
      ],
      "name": "OwnableInvalidOwner",
      "type": "error"
    },
    {
      "inputs": [
        {
          "internalType": "address",
          "name": "account",
          "type": "address"
        }
      ],
      "name": "OwnableUnauthorizedAccount",
      "type": "error"
    },
    {
      "inputs": [],
      "name": "ReentrantCall",
      "type": "error"
    },
    {
      "inputs": [],
      "name": "RefundFailed",
      "type": "error"
    },
    {
      "inputs": [],
      "name": "UUPSUnauthorizedCallContext",
      "type": "error"
    },
    {
      "inputs": [
        {
          "internalType": "bytes32",
          "name": "slot",
          "type": "bytes32"
        }
      ],
      "name": "UUPSUnsupportedProxiableUUID",
      "type": "error"
    },
    {
      "inputs": [],
      "name": "UnexistingUri",
      "type": "error"
    },
    {
      "inputs": [],
      "name": "WithdrawFailed",
      "type": "error"
    },
    {
      "anonymous": false,
      "inputs": [
        {
          "indexed": true,
          "internalType": "address",
          "name": "account",
          "type": "address"
        },
        {
          "indexed": true,
          "internalType": "address",
          "name": "operator",
          "type": "address"
        },
        {
          "indexed": false,
          "internalType": "bool",
          "name": "approved",
          "type": "bool"
        }
      ],
      "name": "ApprovalForAll",
      "type": "event"
    },
    {
      "anonymous": false,
      "inputs": [
        {
          "indexed": false,
          "internalType": "string",
          "name": "baseURI_",
          "type": "string"
        }
      ],
      "name": "BaseUriChanged",
      "type": "event"
    },
    {
      "anonymous": false,
      "inputs": [
        {
          "indexed": false,
          "internalType": "uint256",
          "name": "newFees",
          "type": "uint256"
        }
      ],
      "name": "FeeChanged",
      "type": "event"
    },
    {
      "anonymous": false,
      "inputs": [
        {
          "indexed": false,
          "internalType": "uint64",
          "name": "version",
          "type": "uint64"
        }
      ],
      "name": "Initialized",
      "type": "event"
    },
    {
      "anonymous": false,
      "inputs": [
        {
          "indexed": true,
          "internalType": "address",
          "name": "to",
          "type": "address"
        },
        {
          "indexed": false,
          "internalType": "uint256[]",
          "name": "ids",
          "type": "uint256[]"
        },
        {
          "indexed": false,
          "internalType": "uint256[]",
          "name": "amounts",
          "type": "uint256[]"
        },
        {
          "indexed": false,
          "internalType": "uint256",
          "name": "packsOpened",
          "type": "uint256"
        }
      ],
      "name": "Minted",
      "type": "event"
    },
    {
      "anonymous": false,
      "inputs": [
        {
          "indexed": true,
          "internalType": "address",
          "name": "previousOwner",
          "type": "address"
        },
        {
          "indexed": true,
          "internalType": "address",
          "name": "newOwner",
          "type": "address"
        }
      ],
      "name": "OwnershipTransferStarted",
      "type": "event"
    },
    {
      "anonymous": false,
      "inputs": [
        {
          "indexed": true,
          "internalType": "address",
          "name": "previousOwner",
          "type": "address"
        },
        {
          "indexed": true,
          "internalType": "address",
          "name": "newOwner",
          "type": "address"
        }
      ],
      "name": "OwnershipTransferred",
      "type": "event"
    },
    {
      "anonymous": false,
      "inputs": [
        {
          "indexed": true,
          "internalType": "address",
          "name": "operator",
          "type": "address"
        },
        {
          "indexed": true,
          "internalType": "address",
          "name": "from",
          "type": "address"
        },
        {
          "indexed": true,
          "internalType": "address",
          "name": "to",
          "type": "address"
        },
        {
          "indexed": false,
          "internalType": "uint256[]",
          "name": "ids",
          "type": "uint256[]"
        },
        {
          "indexed": false,
          "internalType": "uint256[]",
          "name": "values",
          "type": "uint256[]"
        }
      ],
      "name": "TransferBatch",
      "type": "event"
    },
    {
      "anonymous": false,
      "inputs": [
        {
          "indexed": true,
          "internalType": "address",
          "name": "operator",
          "type": "address"
        },
        {
          "indexed": true,
          "internalType": "address",
          "name": "from",
          "type": "address"
        },
        {
          "indexed": true,
          "internalType": "address",
          "name": "to",
          "type": "address"
        },
        {
          "indexed": false,
          "internalType": "uint256",
          "name": "id",
          "type": "uint256"
        },
        {
          "indexed": false,
          "internalType": "uint256",
          "name": "value",
          "type": "uint256"
        }
      ],
      "name": "TransferSingle",
      "type": "event"
    },
    {
      "anonymous": false,
      "inputs": [
        {
          "indexed": false,
          "internalType": "string",
          "name": "value",
          "type": "string"
        },
        {
          "indexed": true,
          "internalType": "uint256",
          "name": "id",
          "type": "uint256"
        }
      ],
      "name": "URI",
      "type": "event"
    },
    {
      "anonymous": false,
      "inputs": [
        {
          "indexed": true,
          "internalType": "address",
          "name": "implementation",
          "type": "address"
        }
      ],
      "name": "Upgraded",
      "type": "event"
    },
    {
      "anonymous": false,
      "inputs": [
        {
          "indexed": true,
          "internalType": "address",
          "name": "to",
          "type": "address"
        },
        {
          "indexed": false,
          "internalType": "uint256",
          "name": "value",
          "type": "uint256"
        }
      ],
      "name": "Withdrawn",
      "type": "event"
    },
    {
      "inputs": [],
      "name": "MINT_FEE",
      "outputs": [
        {
          "internalType": "uint256",
          "name": "",
          "type": "uint256"
        }
      ],
      "stateMutability": "view",
      "type": "function"
    },
    {
      "inputs": [],
      "name": "UPGRADE_INTERFACE_VERSION",
      "outputs": [
        {
          "internalType": "string",
          "name": "",
          "type": "string"
        }
      ],
      "stateMutability": "view",
      "type": "function"
    },
    {
      "inputs": [],
      "name": "acceptOwnership",
      "outputs": [],
      "stateMutability": "nonpayable",
      "type": "function"
    },
    {
      "inputs": [
        {
          "internalType": "address",
          "name": "account",
          "type": "address"
        },
        {
          "internalType": "uint256",
          "name": "id",
          "type": "uint256"
        }
      ],
      "name": "balanceOf",
      "outputs": [
        {
          "internalType": "uint256",
          "name": "",
          "type": "uint256"
        }
      ],
      "stateMutability": "view",
      "type": "function"
    },
    {
      "inputs": [
        {
          "internalType": "address[]",
          "name": "accounts",
          "type": "address[]"
        },
        {
          "internalType": "uint256[]",
          "name": "ids",
          "type": "uint256[]"
        }
      ],
      "name": "balanceOfBatch",
      "outputs": [
        {
          "internalType": "uint256[]",
          "name": "",
          "type": "uint256[]"
        }
      ],
      "stateMutability": "view",
      "type": "function"
    },
    {
      "inputs": [
        {
          "internalType": "address",
          "name": "account",
          "type": "address"
        },
        {
          "internalType": "address",
          "name": "operator",
          "type": "address"
        }
      ],
      "name": "isApprovedForAll",
      "outputs": [
        {
          "internalType": "bool",
          "name": "",
          "type": "bool"
        }
      ],
      "stateMutability": "view",
      "type": "function"
    },
    {
      "inputs": [],
      "name": "maxCards",
      "outputs": [
        {
          "internalType": "uint256",
          "name": "",
          "type": "uint256"
        }
      ],
      "stateMutability": "view",
      "type": "function"
    },
    {
      "inputs": [],
      "name": "numCard",
      "outputs": [
        {
          "internalType": "uint256",
          "name": "",
          "type": "uint256"
        }
      ],
      "stateMutability": "view",
      "type": "function"
    },
    {
      "inputs": [],
      "name": "owner",
      "outputs": [
        {
          "internalType": "address",
          "name": "",
          "type": "address"
        }
      ],
      "stateMutability": "view",
      "type": "function"
    },
    {
      "inputs": [],
      "name": "pendingOwner",
      "outputs": [
        {
          "internalType": "address",
          "name": "",
          "type": "address"
        }
      ],
      "stateMutability": "view",
      "type": "function"
    },
    {
      "inputs": [],
      "name": "proxiableUUID",
      "outputs": [
        {
          "internalType": "bytes32",
          "name": "",
          "type": "bytes32"
        }
      ],
      "stateMutability": "view",
      "type": "function"
    },
    {
      "inputs": [
        {
          "internalType": "uint256",
          "name": "requestId",
          "type": "uint256"
        },
        {
          "internalType": "uint256[]",
          "name": "randomWords",
          "type": "uint256[]"
        }
      ],
      "name": "rawFulfillRandomWords",
      "outputs": [],
      "stateMutability": "nonpayable",
      "type": "function"
    },
    {
      "inputs": [],
      "name": "renounceOwnership",
      "outputs": [],
      "stateMutability": "nonpayable",
      "type": "function"
    },
    {
      "inputs": [],
      "name": "royaltyBasis",
      "outputs": [
        {
          "internalType": "uint96",
          "name": "",
          "type": "uint96"
        }
      ],
      "stateMutability": "view",
      "type": "function"
    },
    {
      "inputs": [
        {
          "internalType": "uint256",
          "name": "tokenId",
          "type": "uint256"
        },
        {
          "internalType": "uint256",
          "name": "salePrice",
          "type": "uint256"
        }
      ],
      "name": "royaltyInfo",
      "outputs": [
        {
          "internalType": "address",
          "name": "receiver",
          "type": "address"
        },
        {
          "internalType": "uint256",
          "name": "amount",
          "type": "uint256"
        }
      ],
      "stateMutability": "view",
      "type": "function"
    },
    {
      "inputs": [
        {
          "internalType": "address",
          "name": "from",
          "type": "address"
        },
        {
          "internalType": "address",
          "name": "to",
          "type": "address"
        },
        {
          "internalType": "uint256[]",
          "name": "ids",
          "type": "uint256[]"
        },
        {
          "internalType": "uint256[]",
          "name": "values",
          "type": "uint256[]"
        },
        {
          "internalType": "bytes",
          "name": "data",
          "type": "bytes"
        }
      ],
      "name": "safeBatchTransferFrom",
      "outputs": [],
      "stateMutability": "nonpayable",
      "type": "function"
    },
    {
      "inputs": [
        {
          "internalType": "address",
          "name": "from",
          "type": "address"
        },
        {
          "internalType": "address",
          "name": "to",
          "type": "address"
        },
        {
          "internalType": "uint256",
          "name": "id",
          "type": "uint256"
        },
        {
          "internalType": "uint256",
          "name": "value",
          "type": "uint256"
        },
        {
          "internalType": "bytes",
          "name": "data",
          "type": "bytes"
        }
      ],
      "name": "safeTransferFrom",
      "outputs": [],
      "stateMutability": "nonpayable",
      "type": "function"
    },
    {
      "inputs": [
        {
          "internalType": "address",
          "name": "operator",
          "type": "address"
        },
        {
          "internalType": "bool",
          "name": "approved",
          "type": "bool"
        }
      ],
      "name": "setApprovalForAll",
      "outputs": [],
      "stateMutability": "nonpayable",
      "type": "function"
    },
    {
      "inputs": [
        {
          "internalType": "address",
          "name": "newOwner",
          "type": "address"
        }
      ],
      "name": "transferOwnership",
      "outputs": [],
      "stateMutability": "nonpayable",
      "type": "function"
    },
    {
      "inputs": [
        {
          "internalType": "address",
          "name": "newImplementation",
          "type": "address"
        },
        {
          "internalType": "bytes",
          "name": "data",
          "type": "bytes"
        }
      ],
      "name": "upgradeToAndCall",
      "outputs": [],
      "stateMutability": "payable",
      "type": "function"
    },
    {
      "inputs": [
        {
          "internalType": "uint64",
          "name": "subscriptionId",
          "type": "uint64"
        }
      ],
      "name": "initialize",
      "outputs": [],
      "stateMutability": "nonpayable",
      "type": "function"
    },
    {
      "inputs": [],
      "name": "requestShuffle",
      "outputs": [
        {
          "internalType": "uint256",
          "name": "requestId",
          "type": "uint256"
        }
      ],
      "stateMutability": "nonpayable",
      "type": "function"
    },
    {
      "inputs": [
        {
          "internalType": "string",
          "name": "baseURI_",
          "type": "string"
        }
      ],
      "name": "changeURI",
      "outputs": [],
      "stateMutability": "nonpayable",
      "type": "function"
    },
    {
      "inputs": [
        {
          "internalType": "bytes4",
          "name": "interfaceId",
          "type": "bytes4"
        }
      ],
      "name": "supportsInterface",
      "outputs": [
        {
          "internalType": "bool",
          "name": "",
          "type": "bool"
        }
      ],
      "stateMutability": "view",
      "type": "function"
    },
    {
      "inputs": [
        {
          "internalType": "uint256",
          "name": "fee",
          "type": "uint256"
        }
      ],
      "name": "setMintFee",
      "outputs": [],
      "stateMutability": "payable",
      "type": "function"
    },
    {
      "inputs": [
        {
          "internalType": "address",
          "name": "to",
          "type": "address"
        },
        {
          "internalType": "uint256",
          "name": "packsToOpen",
          "type": "uint256"
        }
      ],
      "name": "mint4To",
      "outputs": [],
      "stateMutability": "payable",
      "type": "function"
    },
    {
      "inputs": [
        {
          "internalType": "uint256",
          "name": "packsToOpen",
          "type": "uint256"
        }
      ],
      "name": "mint4Me",
      "outputs": [],
      "stateMutability": "payable",
      "type": "function"
    },
    {
      "inputs": [
        {
          "internalType": "address",
          "name": "user",
          "type": "address"
        }
      ],
      "name": "getTotalNFTsOf",
      "outputs": [
        {
          "internalType": "uint256",
          "name": "count",
          "type": "uint256"
        }
      ],
      "stateMutability": "view",
      "type": "function"
    },
    {
      "inputs": [],
      "name": "getTotalMyNFTs",
      "outputs": [
        {
          "internalType": "uint256",
          "name": "",
          "type": "uint256"
        }
      ],
      "stateMutability": "view",
      "type": "function"
    },
    {
      "inputs": [
        {
          "internalType": "address",
          "name": "user",
          "type": "address"
        }
      ],
      "name": "getNFTsOf",
      "outputs": [
        {
          "internalType": "uint256[]",
          "name": "",
          "type": "uint256[]"
        },
        {
          "internalType": "uint256[]",
          "name": "",
          "type": "uint256[]"
        }
      ],
      "stateMutability": "view",
      "type": "function"
    },
    {
      "inputs": [],
      "name": "getMyNFTs",
      "outputs": [
        {
          "internalType": "uint256[]",
          "name": "",
          "type": "uint256[]"
        },
        {
          "internalType": "uint256[]",
          "name": "",
          "type": "uint256[]"
        }
      ],
      "stateMutability": "view",
      "type": "function"
    },
    {
      "inputs": [
        {
          "internalType": "uint256",
          "name": "id",
          "type": "uint256"
        }
      ],
      "name": "uri",
      "outputs": [
        {
          "internalType": "string",
          "name": "",
          "type": "string"
        }
      ],
      "stateMutability": "view",
      "type": "function"
    },
    {
      "inputs": [],
      "name": "name",
      "outputs": [
        {
          "internalType": "string",
          "name": "",
          "type": "string"
        }
      ],
      "stateMutability": "pure",
      "type": "function"
    },
    {
      "inputs": [],
      "name": "withdraw",
      "outputs": [],
      "stateMutability": "payable",
      "type": "function"
    },
    {
      "inputs": [],
      "name": "contractURI",
      "outputs": [
        {
          "internalType": "string",
          "name": "",
          "type": "string"
        }
      ],
      "stateMutability": "view",
      "type": "function"
    }
  ],
  "bytecode": "0x60a06040523073ffffffffffffffffffffffffffffffffffffffff1660809073ffffffffffffffffffffffffffffffffffffffff168152506001805566b1a2bc2ec500006002556103e860035f6101000a8154816bffffffffffffffffffffffff02191690836bffffffffffffffffffffffff1602179055506001600660146101000a81548167ffffffffffffffff021916908367ffffffffffffffff1602179055506001600755739ddfaca8183c41ad55329bdeed9f6a8d53168b1b60085f6101000a81548173ffffffffffffffffffffffffffffffffffffffff021916908373ffffffffffffffffffffffffffffffffffffffff1602179055507f787d74caea10b2b357790d5b5247c2f63d1d91572a9846f780606e4d953677ae5f1b600955619c40600a5f6101000a81548163ffffffff021916908363ffffffff1602179055506003600a60046101000a81548161ffff021916908361ffff1602179055506001600a60066101000a81548163ffffffff021916908363ffffffff1602179055505f73ffffffffffffffffffffffffffffffffffffffff163373ffffffffffffffffffffffffffffffffffffffff16036101e8576040517f9c8d2cd200000000000000000000000000000000000000000000000000000000815260040160405180910390fd5b5f34146102cb575f3373ffffffffffffffffffffffffffffffffffffffff16346040516102149061044b565b5f6040518083038185875af1925050503d805f811461024e576040519150601f19603f3d011682016040523d82523d5f602084013e610253565b606091505b505090508061028e576040517ff0c49d4400000000000000000000000000000000000000000000000000000000815260040160405180910390fd5b346040517f4af54b920000000000000000000000000000000000000000000000000000000081526004016102c29190610477565b60405180910390fd5b6102d96102de60201b60201c565b6104cb565b5f6102ed6103dc60201b60201c565b9050805f0160089054906101000a900460ff1615610337576040517ff92ee8a900000000000000000000000000000000000000000000000000000000815260040160405180910390fd5b67ffffffffffffffff8016815f015f9054906101000a900467ffffffffffffffff1667ffffffffffffffff16146103d95767ffffffffffffffff815f015f6101000a81548167ffffffffffffffff021916908367ffffffffffffffff1602179055507fc7f505b2f371ae2175ee4913f4499e1f2633a7b5936321eed1cdaeb6115181d267ffffffffffffffff6040516103d091906104b2565b60405180910390a15b50565b5f5f6103ec6103f560201b60201c565b90508091505090565b5f7ff0c57e16840df040f15088dc2f81fe391c3923bec73e23a9662efc9c229c6a005f1b905090565b5f81905092915050565b50565b5f6104365f8361041e565b915061044182610428565b5f82019050919050565b5f6104558261042b565b9150819050919050565b5f819050919050565b6104718161045f565b82525050565b5f60208201905061048a5f830184610468565b92915050565b5f67ffffffffffffffff82169050919050565b6104ac81610490565b82525050565b5f6020820190506104c55f8301846104a3565b92915050565b608051615c136104f15f395f818161232c01528181612381015261253b0152615c135ff3fe608060405260043610610202575f3560e01c806379ba509711610117578063e1bc4c5f1161009f578063e985e9c51161006e578063e985e9c5146106f9578063eb92db2714610735578063eddd0d9c1461075d578063f242432a14610779578063f2fde38b146107a157610202565b8063e1bc4c5f14610640578063e30c39781461067d578063e5e01c11146106a7578063e8a3d485146106cf57610202565b8063ad3cb1cc116100e6578063ad3cb1cc1461056e578063b684349314610598578063c6ec6909146105c2578063c80bfaff146105ec578063d7bf81a31461061657610202565b806379ba5097146104ca5780638da5cb5b146104e0578063a22cb4651461050a578063a78cd8211461053257610202565b80633ccfd60b1161019a5780634e1273f4116101695780634e1273f4146104075780634f1ef2861461044357806352d1902d1461045f578063629cb2e414610489578063715018a6146104b457610202565b80633ccfd60b1461039b57806343316c66146103a557806346fa0b96146103cf5780634d72aa2f146103eb57610202565b80630e89341c116101d65780630e89341c146102d25780631fe543e31461030e5780632a55205a146103365780632eb2c2d61461037357610202565b8062fdd58e1461020657806301ffc9a71461024257806306fdde031461027e57806308b237b5146102a8575b5f5ffd5b348015610211575f5ffd5b5061022c6004803603810190610227919061421c565b6107c9565b6040516102399190614269565b60405180910390f35b34801561024d575f5ffd5b50610268600480360381019061026391906142d7565b61082c565b604051610275919061431c565b60405180910390f35b348015610289575f5ffd5b5061029261083d565b60405161029f91906143a5565b60405180910390f35b3480156102b3575f5ffd5b506102bc61087a565b6040516102c99190614269565b60405180910390f35b3480156102dd575f5ffd5b506102f860048036038101906102f391906143c5565b61087f565b60405161030591906143a5565b60405180910390f35b348015610319575f5ffd5b50610334600480360381019061032f9190614530565b6108cb565b005b348015610341575f5ffd5b5061035c6004803603810190610357919061458a565b61098b565b60405161036a9291906145d7565b60405180910390f35b34801561037e575f5ffd5b50610399600480360381019061039491906146ae565b610abd565b005b6103a3610b64565b005b3480156103b0575f5ffd5b506103b9610c68565b6040516103c69190614269565b60405180910390f35b6103e960048036038101906103e4919061421c565b610daf565b005b610405600480360381019061040091906143c5565b610e78565b005b348015610412575f5ffd5b5061042d60048036038101906104289190614839565b610ecf565b60405161043a9190614966565b60405180910390f35b61045d60048036038101906104589190614986565b610fd9565b005b34801561046a575f5ffd5b50610473610ff8565b60405161048091906149f8565b60405180910390f35b348015610494575f5ffd5b5061049d611029565b6040516104ab929190614a11565b60405180910390f35b3480156104bf575f5ffd5b506104c861103d565b005b3480156104d5575f5ffd5b506104de611050565b005b3480156104eb575f5ffd5b506104f46110de565b6040516105019190614a46565b60405180910390f35b348015610515575f5ffd5b50610530600480360381019061052b9190614a89565b611113565b005b34801561053d575f5ffd5b5061055860048036038101906105539190614ac7565b611129565b6040516105659190614269565b60405180910390f35b348015610579575f5ffd5b5061058261116b565b60405161058f91906143a5565b60405180910390f35b3480156105a3575f5ffd5b506105ac6111a4565b6040516105b99190614269565b60405180910390f35b3480156105cd575f5ffd5b506105d66111b3565b6040516105e39190614b18565b60405180910390f35b3480156105f7575f5ffd5b506106006111d0565b60405161060d9190614269565b60405180910390f35b348015610621575f5ffd5b5061062a6111d5565b6040516106379190614269565b60405180910390f35b34801561064b575f5ffd5b5061066660048036038101906106619190614ac7565b6111db565b604051610674929190614a11565b60405180910390f35b348015610688575f5ffd5b5061069161132e565b60405161069e9190614a46565b60405180910390f35b3480156106b2575f5ffd5b506106cd60048036038101906106c89190614bcf565b611363565b005b3480156106da575f5ffd5b506106e36113ae565b6040516106f091906143a5565b60405180910390f35b348015610704575f5ffd5b5061071f600480360381019061071a9190614c16565b6114c4565b60405161072c919061431c565b60405180910390f35b348015610740575f5ffd5b5061075b60048036038101906107569190614c91565b611560565b005b610777600480360381019061077291906143c5565b611838565b005b348015610784575f5ffd5b5061079f600480360381019061079a9190614cbc565b61188b565b005b3480156107ac575f5ffd5b506107c760048036038101906107c29190614ac7565b611932565b005b5f5f6107d36119eb565b9050805f015f8481526020019081526020015f205f8573ffffffffffffffffffffffffffffffffffffffff1673ffffffffffffffffffffffffffffffffffffffff1681526020019081526020015f205491505092915050565b5f61083682611a12565b9050919050565b60606040518060400160405280600b81526020017f496e66556e6967654e4654000000000000000000000000000000000000000000815250905090565b60fa81565b6060605082106108bb576040517f73a5344d00000000000000000000000000000000000000000000000000000000815260040160405180910390fd5b6108c482611a8b565b9050919050565b5f5f9054906101000a900473ffffffffffffffffffffffffffffffffffffffff1673ffffffffffffffffffffffffffffffffffffffff163373ffffffffffffffffffffffffffffffffffffffff161461097d57335f5f9054906101000a900473ffffffffffffffffffffffffffffffffffffffff166040517f1cf993f4000000000000000000000000000000000000000000000000000000008152600401610974929190614d4f565b60405180910390fd5b6109878282611b2b565b5050565b5f5f5f610996611c99565b90505f816001015f8781526020019081526020015f2090505f815f015f9054906101000a900473ffffffffffffffffffffffffffffffffffffffff1690505f825f0160149054906101000a90046bffffffffffffffffffffffff1690505f73ffffffffffffffffffffffffffffffffffffffff168273ffffffffffffffffffffffffffffffffffffffff1603610a6e57835f015f015f9054906101000a900473ffffffffffffffffffffffffffffffffffffffff169150835f015f0160149054906101000a90046bffffffffffffffffffffffff1690505b5f610a77611cc0565b6bffffffffffffffffffffffff16826bffffffffffffffffffffffff1689610a9f9190614da3565b610aa99190614e11565b905082819650965050505050509250929050565b5f610ac6611cc9565b90508073ffffffffffffffffffffffffffffffffffffffff168673ffffffffffffffffffffffffffffffffffffffff1614158015610b0b5750610b0986826114c4565b155b15610b4f5780866040517fe237d922000000000000000000000000000000000000000000000000000000008152600401610b46929190614d4f565b60405180910390fd5b610b5c8686868686611cd0565b505050505050565b610b6c611dc4565b5f4790505f610b796110de565b73ffffffffffffffffffffffffffffffffffffffff1682604051610b9c90614e6e565b5f6040518083038185875af1925050503d805f8114610bd6576040519150601f19603f3d011682016040523d82523d5f602084013e610bdb565b606091505b5050905080610c16576040517f750b219c00000000000000000000000000000000000000000000000000000000815260040160405180910390fd5b3373ffffffffffffffffffffffffffffffffffffffff167f7084f5476618d8e60b11ef0d7d3f06914655adb8793e28ff7f018d4c76d505d583604051610c5c9190614269565b60405180910390a25050565b5f610c71611dc4565b600160055414610cb6576040517f08c379a0000000000000000000000000000000000000000000000000000000008152600401610cad90614ecc565b60405180910390fd5b60065f9054906101000a900473ffffffffffffffffffffffffffffffffffffffff1673ffffffffffffffffffffffffffffffffffffffff16635d3b1d30600954600660149054906101000a900467ffffffffffffffff16600a60049054906101000a900461ffff16600a5f9054906101000a900463ffffffff16600a60069054906101000a900463ffffffff166040518663ffffffff1660e01b8152600401610d63959493929190614f33565b6020604051808303815f875af1158015610d7f573d5f5f3e3d5ffd5b505050506040513d601f19601f82011682018060405250810190610da39190614f98565b90508060078190555090565b6001805414610dea576040517f37ed32e800000000000000000000000000000000000000000000000000000000815260040160405180910390fd5b6002600181905550600181118015610e0f5750600560fa610e0b9190614e11565b8111155b610e1c57610e1b614fc3565b5b80600254610e2a9190614da3565b341015610e63576040517f6a12f10400000000000000000000000000000000000000000000000000000000815260040160405180910390fd5b610e6d8282611e4b565b600180819055505050565b6001805414610eb3576040517f37ed32e800000000000000000000000000000000000000000000000000000000815260040160405180910390fd5b6002600181905550610ec53382610daf565b6001808190555050565b60608151835114610f1b57815183516040517f5b059991000000000000000000000000000000000000000000000000000000008152600401610f12929190614ff0565b60405180910390fd5b5f835167ffffffffffffffff811115610f3757610f366143f4565b5b604051908082528060200260200182016040528015610f655781602001602082028036833780820191505090505b5090505f5f90505b8451811015610fce57610fa4610f8c828761230490919063ffffffff16565b610f9f838761231790919063ffffffff16565b6107c9565b828281518110610fb757610fb6615017565b5b602002602001018181525050806001019050610f6d565b508091505092915050565b610fe161232a565b610fea82612410565b610ff4828261241b565b5050565b5f611001612539565b7f360894a13ba1a3210667c828492db98dca3e2076cc3735a920a3ca505d382bbc5f1b905090565b606080611035336111db565b915091509091565b611045611dc4565b61104e5f6125c0565b565b5f611059611cc9565b90508073ffffffffffffffffffffffffffffffffffffffff1661107a61132e565b73ffffffffffffffffffffffffffffffffffffffff16146110d257806040517f118cdaa70000000000000000000000000000000000000000000000000000000081526004016110c99190614a46565b60405180910390fd5b6110db816125c0565b50565b5f5f6110e86125fd565b9050805f015f9054906101000a900473ffffffffffffffffffffffffffffffffffffffff1691505090565b61112561111e611cc9565b8383612624565b5050565b5f5f5b6050811015611165575f61114084836107c9565b90505f8111156111595780836111569190615044565b92505b8160010191505061112c565b50919050565b6040518060400160405280600581526020017f352e302e3000000000000000000000000000000000000000000000000000000081525081565b5f6111ae33611129565b905090565b60035f9054906101000a90046bffffffffffffffffffffffff1681565b605081565b60025481565b6060805f5f605090505f5b81811015611211575f6111f987836107c9565b1115611206578260010192505b8060010190506111e6565b505f8267ffffffffffffffff81111561122d5761122c6143f4565b5b60405190808252806020026020018201604052801561125b5781602001602082028036833780820191505090505b5090505f8367ffffffffffffffff811115611279576112786143f4565b5b6040519080825280602002602001820160405280156112a75781602001602082028036833780820191505090505b5090505f5f5b8481101561131d575f6112c08a836107c9565b90505f81111561131157818584815181106112de576112dd615017565b5b602002602001018181525050808484815181106112fe576112fd615017565b5b6020026020010181815250508260010192505b816001019150506112ad565b508282965096505050505050915091565b5f5f61133861279b565b9050805f015f9054906101000a900473ffffffffffffffffffffffffffffffffffffffff1691505090565b61136b611dc4565b611374816127c2565b7f87cdeaffd8e70903d6ce7cc983fac3b09ca79e83818124c98e47a1d70f8027d6816040516113a391906143a5565b60405180910390a150565b60606114a0604051806060016040528060308152602001615b2f603091396113fc60035f9054906101000a90046bffffffffffffffffffffffff166bffffffffffffffffffffffff166127e3565b6040518060400160405280601481526020017f2c226665655f726563697069656e74223a22307800000000000000000000000081525061144261143d6110de565b6128ad565b6040518060400160405280600281526020017f227d00000000000000000000000000000000000000000000000000000000000081525060405160200161148c9594939291906150b1565b604051602081830303815290604052612a61565b6040516020016114b0919061517f565b604051602081830303815290604052905090565b5f5f6114ce6119eb565b9050806001015f8573ffffffffffffffffffffffffffffffffffffffff1673ffffffffffffffffffffffffffffffffffffffff1681526020019081526020015f205f8473ffffffffffffffffffffffffffffffffffffffff1673ffffffffffffffffffffffffffffffffffffffff1681526020019081526020015f205f9054906101000a900460ff1691505092915050565b5f611569612a8e565b90505f815f0160089054906101000a900460ff161590505f825f015f9054906101000a900467ffffffffffffffff1690505f5f8267ffffffffffffffff161480156115b15750825b90505f60018367ffffffffffffffff161480156115e457505f3073ffffffffffffffffffffffffffffffffffffffff163b145b9050811580156115f2575080155b15611629576040517ff92ee8a900000000000000000000000000000000000000000000000000000000815260040160405180910390fd5b6001855f015f6101000a81548167ffffffffffffffff021916908367ffffffffffffffff1602179055508315611676576001855f0160086101000a81548160ff0219169083151502179055505b6116976040518060600160405280603f8152602001615b9f603f9139612aa1565b6116a033612ab5565b6116a8612ac9565b6116b0612ad3565b85600660146101000a81548167ffffffffffffffff021916908367ffffffffffffffff16021790555061170360085f9054906101000a900473ffffffffffffffffffffffffffffffffffffffff16612add565b60085f9054906101000a900473ffffffffffffffffffffffffffffffffffffffff1660065f6101000a81548173ffffffffffffffffffffffffffffffffffffffff021916908373ffffffffffffffffffffffffffffffffffffffff16021790555060016005819055506001808190555066b1a2bc2ec500006002819055506103e860035f6101000a8154816bffffffffffffffffffffffff02191690836bffffffffffffffffffffffff1602179055506117d63360035f9054906101000a90046bffffffffffffffffffffffff16612b27565b8315611830575f855f0160086101000a81548160ff0219169083151502179055507fc7f505b2f371ae2175ee4913f4499e1f2633a7b5936321eed1cdaeb6115181d2600160405161182791906151e2565b60405180910390a15b505050505050565b611840611dc4565b600254811461185157806002819055505b7f6bbc57480a46553fa4d156ce702beef5f3ad66303b0ed1a5d4cb44966c6584c3816040516118809190614269565b60405180910390a150565b5f611894611cc9565b90508073ffffffffffffffffffffffffffffffffffffffff168673ffffffffffffffffffffffffffffffffffffffff16141580156118d957506118d786826114c4565b155b1561191d5780866040517fe237d922000000000000000000000000000000000000000000000000000000008152600401611914929190614d4f565b60405180910390fd5b61192a8686868686612ccf565b505050505050565b61193a611dc4565b5f61194361279b565b905081815f015f6101000a81548173ffffffffffffffffffffffffffffffffffffffff021916908373ffffffffffffffffffffffffffffffffffffffff1602179055508173ffffffffffffffffffffffffffffffffffffffff166119a56110de565b73ffffffffffffffffffffffffffffffffffffffff167f38d16b8cac22d99fc7c124b9cd0de2d3fa1faef420bfe791d8c362d765e2270060405160405180910390a35050565b5f7f88be536d5240c274a3b1d3a1be54482fd9caa294f08c62a7cde569f49a3c4500905090565b5f7f2a55205a000000000000000000000000000000000000000000000000000000007bffffffffffffffffffffffffffffffffffffffffffffffffffffffff1916827bffffffffffffffffffffffffffffffffffffffffffffffffffffffff19161480611a845750611a8382612dd5565b5b9050919050565b60605f611a966119eb565b9050806002018054611aa790615228565b80601f0160208091040260200160405190810160405280929190818152602001828054611ad390615228565b8015611b1e5780601f10611af557610100808354040283529160200191611b1e565b820191905f5260205f20905b815481529060010190602001808311611b0157829003601f168201915b5050505050915050919050565b5f6105dc67ffffffffffffffff811115611b4857611b476143f4565b5b6040519080825280601f01601f191660200182016040528015611b7a5781602001600182028036833780820191505090505b5090505f5f5f5b60508160ff161015611c1557611b998160ff16612eb6565b611ba4576014611ba7565b600a5b91505f5b82811015611c09578160f81b858581518110611bca57611bc9615017565b5b60200101907effffffffffffffffffffffffffffffffffffffffffffffffffffffffffffff191690815f1a905350806001019050836001019350611bab565b50806001019050611b81565b50611c3a83855f81518110611c2d57611c2c615017565b5b6020026020010151612eda565b60049081611c4891906153ef565b506105dc60048054611c5990615228565b905014611c92576040517fca3487f700000000000000000000000000000000000000000000000000000000815260040160405180910390fd5b5050505050565b5f7fdaedc9ab023613a7caf35e703657e986ccfad7e3eb0af93a2853f8d65dd86b00905090565b5f612710905090565b5f33905090565b5f73ffffffffffffffffffffffffffffffffffffffff168473ffffffffffffffffffffffffffffffffffffffff1603611d40575f6040517f57f447ce000000000000000000000000000000000000000000000000000000008152600401611d379190614a46565b60405180910390fd5b5f73ffffffffffffffffffffffffffffffffffffffff168573ffffffffffffffffffffffffffffffffffffffff1603611db0575f6040517f01a83514000000000000000000000000000000000000000000000000000000008152600401611da79190614a46565b60405180910390fd5b611dbd858585858561300b565b5050505050565b611dcc611cc9565b73ffffffffffffffffffffffffffffffffffffffff16611dea6110de565b73ffffffffffffffffffffffffffffffffffffffff1614611e4957611e0d611cc9565b6040517f118cdaa7000000000000000000000000000000000000000000000000000000008152600401611e409190614a46565b60405180910390fd5b565b5f73ffffffffffffffffffffffffffffffffffffffff168273ffffffffffffffffffffffffffffffffffffffff1603611eb0576040517f9c8d2cd200000000000000000000000000000000000000000000000000000000815260040160405180910390fd5b5f600590508181611ec19190614da3565b90505f600160055414611ed657600554611ed8565b5f5b90505f60049050808054611eeb90615228565b90508383611ef99190615044565b10611f30576040517f58bb862900000000000000000000000000000000000000000000000000000000815260040160405180910390fd5b5f611f3a86611129565b905060fa8482611f4a9190615044565b10611f81576040517f7f83368300000000000000000000000000000000000000000000000000000000815260040160405180910390fd5b5f8467ffffffffffffffff811115611f9c57611f9b6143f4565b5b604051908082528060200260200182016040528015611fca5781602001602082028036833780820191505090505b5090505f8567ffffffffffffffff811115611fe857611fe76143f4565b5b6040519080825280602002602001820160405280156120165781602001602082028036833780820191505090505b5090505f5f5b87811015612153575f8682896120329190615044565b815461203d90615228565b811061204c5761204b615017565b5b81546001161561206957905f5260205f2090602091828204019190065b9054901a7f01000000000000000000000000000000000000000000000000000000000000000290505f6120a08260f81c87866130b7565b90507fffffffffffffffffffffffffffffffffffffffffffffffffffffffffffffffff8103612120578160f81c8685815181106120e0576120df615017565b5b602002602001019060ff16908160ff1681525050600185858151811061210957612108615017565b5b602002602001018181525050836001019350612146565b84818151811061213357612132615017565b5b6020026020010180516001019081815250505b826001019250505061201c565b5086866121609190615044565b6005819055505f8167ffffffffffffffff811115612181576121806143f4565b5b6040519080825280602002602001820160405280156121af5781602001602082028036833780820191505090505b5090505f8267ffffffffffffffff8111156121cd576121cc6143f4565b5b6040519080825280602002602001820160405280156121fb5781602001602082028036833780820191505090505b5090505f5b8381101561228a5785818151811061221b5761221a615017565b5b602002602001015160ff1683828151811061223957612238615017565b5b60200260200101818152505084818151811061225857612257615017565b5b602002602001015182828151811061227357612272615017565b5b602002602001018181525050806001019050612200565b506122a58b838360405180602001604052805f815250613127565b8a73ffffffffffffffffffffffffffffffffffffffff167f03d53272cc0ecc3887cc3461157e5bce8c100a184130f87dc5cdc57c8b2776c583838d6040516122ef939291906154be565b60405180910390a25050505050505050505050565b5f60208202602084010151905092915050565b5f60208202602084010151905092915050565b7f000000000000000000000000000000000000000000000000000000000000000073ffffffffffffffffffffffffffffffffffffffff163073ffffffffffffffffffffffffffffffffffffffff1614806123d757507f000000000000000000000000000000000000000000000000000000000000000073ffffffffffffffffffffffffffffffffffffffff166123be6131aa565b73ffffffffffffffffffffffffffffffffffffffff1614155b1561240e576040517fe07c8dba00000000000000000000000000000000000000000000000000000000815260040160405180910390fd5b565b612418611dc4565b50565b8173ffffffffffffffffffffffffffffffffffffffff166352d1902d6040518163ffffffff1660e01b8152600401602060405180830381865afa92505050801561248357506040513d601f19601f82011682018060405250810190612480919061552b565b60015b6124c457816040517f4c9c8ce30000000000000000000000000000000000000000000000000000000081526004016124bb9190614a46565b60405180910390fd5b7f360894a13ba1a3210667c828492db98dca3e2076cc3735a920a3ca505d382bbc5f1b811461252a57806040517faa1d49a400000000000000000000000000000000000000000000000000000000815260040161252191906149f8565b60405180910390fd5b61253483836131fd565b505050565b7f000000000000000000000000000000000000000000000000000000000000000073ffffffffffffffffffffffffffffffffffffffff163073ffffffffffffffffffffffffffffffffffffffff16146125be576040517fe07c8dba00000000000000000000000000000000000000000000000000000000815260040160405180910390fd5b565b5f6125c961279b565b9050805f015f6101000a81549073ffffffffffffffffffffffffffffffffffffffff02191690556125f98261326f565b5050565b5f7f9016d09d72d40fdae2fd8ceac6b6234c7706214fd39c1cd1e609a0528c199300905090565b5f61262d6119eb565b90505f73ffffffffffffffffffffffffffffffffffffffff168373ffffffffffffffffffffffffffffffffffffffff160361269f575f6040517fced3e1000000000000000000000000000000000000000000000000000000000081526004016126969190614a46565b60405180910390fd5b81816001015f8673ffffffffffffffffffffffffffffffffffffffff1673ffffffffffffffffffffffffffffffffffffffff1681526020019081526020015f205f8573ffffffffffffffffffffffffffffffffffffffff1673ffffffffffffffffffffffffffffffffffffffff1681526020019081526020015f205f6101000a81548160ff0219169083151502179055508273ffffffffffffffffffffffffffffffffffffffff168473ffffffffffffffffffffffffffffffffffffffff167f17307eab39ab6107e8899845ad3d59bd9653f200f220920489ca2b5937696c318460405161278d919061431c565b60405180910390a350505050565b5f7f237e158222e3e6968b72b9db0d8043aacf074ad9f650f0d1606b4d82ee432c00905090565b5f6127cb6119eb565b9050818160020190816127de91906155ae565b505050565b60605f60016127f184613340565b0190505f8167ffffffffffffffff81111561280f5761280e6143f4565b5b6040519080825280601f01601f1916602001820160405280156128415781602001600182028036833780820191505090505b5090505f82602001820190505b6001156128a2578080600190039150507f3031323334353637383961626364656600000000000000000000000000000000600a86061a8153600a858161289757612896614de4565b5b0494505f850361284e575b819350505050919050565b60605f602867ffffffffffffffff8111156128cb576128ca6143f4565b5b6040519080825280601f01601f1916602001820160405280156128fd5781602001600182028036833780820191505090505b5090505f5b6014811015612a57575f816013612919919061567d565b60086129259190614da3565b600261293191906157df565b8573ffffffffffffffffffffffffffffffffffffffff166129529190614e11565b60f81b90505f60108260f81c6129689190615835565b60f81b90505f8160f81c601061297e9190615865565b8360f81c61298c91906158a1565b60f81b905061299a82613491565b858560026129a89190614da3565b815181106129b9576129b8615017565b5b60200101907effffffffffffffffffffffffffffffffffffffffffffffffffffffffffffff191690815f1a9053506129f081613491565b856001866002612a009190614da3565b612a0a9190615044565b81518110612a1b57612a1a615017565b5b60200101907effffffffffffffffffffffffffffffffffffffffffffffffffffffffffffff191690815f1a905350836001019350505050612902565b5080915050919050565b6060612a8782604051806060016040528060408152602001615b5f6040913960016134d5565b9050919050565b5f5f612a98613664565b90508091505090565b612aa961368d565b612ab2816136cd565b50565b612abd61368d565b612ac6816136e1565b50565b612ad161368d565b565b612adb61368d565b565b612ae561368d565b805f5f6101000a81548173ffffffffffffffffffffffffffffffffffffffff021916908373ffffffffffffffffffffffffffffffffffffffff16021790555050565b5f612b30611c99565b90505f612b3b611cc0565b6bffffffffffffffffffffffff16905080836bffffffffffffffffffffffff161115612ba05782816040517f6f483d09000000000000000000000000000000000000000000000000000000008152600401612b97929190615905565b60405180910390fd5b5f73ffffffffffffffffffffffffffffffffffffffff168473ffffffffffffffffffffffffffffffffffffffff1603612c10575f6040517fb6d9900a000000000000000000000000000000000000000000000000000000008152600401612c079190614a46565b60405180910390fd5b60405180604001604052808573ffffffffffffffffffffffffffffffffffffffff168152602001846bffffffffffffffffffffffff16815250825f015f820151815f015f6101000a81548173ffffffffffffffffffffffffffffffffffffffff021916908373ffffffffffffffffffffffffffffffffffffffff1602179055506020820151815f0160146101000a8154816bffffffffffffffffffffffff02191690836bffffffffffffffffffffffff16021790555090505050505050565b5f73ffffffffffffffffffffffffffffffffffffffff168473ffffffffffffffffffffffffffffffffffffffff1603612d3f575f6040517f57f447ce000000000000000000000000000000000000000000000000000000008152600401612d369190614a46565b60405180910390fd5b5f73ffffffffffffffffffffffffffffffffffffffff168573ffffffffffffffffffffffffffffffffffffffff1603612daf575f6040517f01a83514000000000000000000000000000000000000000000000000000000008152600401612da69190614a46565b60405180910390fd5b5f5f612dbb8585613765565b91509150612dcc878784848761300b565b50505050505050565b5f7fd9b67a26000000000000000000000000000000000000000000000000000000007bffffffffffffffffffffffffffffffffffffffffffffffffffffffff1916827bffffffffffffffffffffffffffffffffffffffffffffffffffffffff19161480612e9f57507f0e89341c000000000000000000000000000000000000000000000000000000007bffffffffffffffffffffffffffffffffffffffffffffffffffffffff1916827bffffffffffffffffffffffffffffffffffffffffffffffffffffffff1916145b80612eaf5750612eae82613795565b5b9050919050565b5f60468210158015612ec95750604e8211155b80612ed357505f82145b9050919050565b60605f835190505f5b81811015613000575f8183612ef8919061567d565b8583604051602001612f0b929190614ff0565b604051602081830303815290604052805190602001205f1c612f2d919061592c565b82612f389190615044565b9050858181518110612f4d57612f4c615017565b5b602001015160f81c60f81b868381518110612f6b57612f6a615017565b5b602001015160f81c60f81b878481518110612f8957612f88615017565b5b60200101888481518110612fa057612f9f615017565b5b60200101827effffffffffffffffffffffffffffffffffffffffffffffffffffffffffffff19165f1a9053827effffffffffffffffffffffffffffffffffffffffffffffffffffffffffffff19165f1a9053505081600101915050612ee3565b508391505092915050565b613017858585856137fe565b5f73ffffffffffffffffffffffffffffffffffffffff168473ffffffffffffffffffffffffffffffffffffffff16146130b0575f613053611cc9565b9050600184510361309f575f6130725f8661231790919063ffffffff16565b90505f6130885f8661231790919063ffffffff16565b9050613098838989858589613ba3565b50506130ae565b6130ad818787878787613d52565b5b505b5050505050565b5f7fffffffffffffffffffffffffffffffffffffffffffffffffffffffffffffffff90505f5b8281101561311f578460ff168482815181106130fc576130fb615017565b5b602002602001015160ff16036131145780915061311f565b8060010190506130dd565b509392505050565b5f73ffffffffffffffffffffffffffffffffffffffff168473ffffffffffffffffffffffffffffffffffffffff1603613197575f6040517f57f447ce00000000000000000000000000000000000000000000000000000000815260040161318e9190614a46565b60405180910390fd5b6131a45f8585858561300b565b50505050565b5f6131d67f360894a13ba1a3210667c828492db98dca3e2076cc3735a920a3ca505d382bbc5f1b613f01565b5f015f9054906101000a900473ffffffffffffffffffffffffffffffffffffffff16905090565b61320682613f0a565b8173ffffffffffffffffffffffffffffffffffffffff167fbc7cd75a20ee27fd9adebab32041f755214dbc6bffa90cc0225b39da2e5c2d3b60405160405180910390a25f815111156132625761325c8282613fd3565b5061326b565b61326a614053565b5b5050565b5f6132786125fd565b90505f815f015f9054906101000a900473ffffffffffffffffffffffffffffffffffffffff16905082825f015f6101000a81548173ffffffffffffffffffffffffffffffffffffffff021916908373ffffffffffffffffffffffffffffffffffffffff1602179055508273ffffffffffffffffffffffffffffffffffffffff168173ffffffffffffffffffffffffffffffffffffffff167f8be0079c531659141344cd1fd0a4f28419497f9722a3daafe3b4186f6b6457e060405160405180910390a3505050565b5f5f5f90507a184f03e93ff9f4daa797ed6e38ed64bf6a1f010000000000000000831061339c577a184f03e93ff9f4daa797ed6e38ed64bf6a1f010000000000000000838161339257613391614de4565b5b0492506040810190505b6d04ee2d6d415b85acef810000000083106133d9576d04ee2d6d415b85acef810000000083816133cf576133ce614de4565b5b0492506020810190505b662386f26fc10000831061340857662386f26fc1000083816133fe576133fd614de4565b5b0492506010810190505b6305f5e1008310613431576305f5e100838161342757613426614de4565b5b0492506008810190505b612710831061345657612710838161344c5761344b614de4565b5b0492506004810190505b60648310613479576064838161346f5761346e614de4565b5b0492506002810190505b600a8310613488576001810190505b80915050919050565b5f60098260f81c60ff16116134ba5760308260f81c6134b0919061595c565b60f81b90506134d0565b60578260f81c6134ca919061595c565b60f81b90505b919050565b60605f8451036134f55760405180602001604052805f815250905061365d565b5f8261352657600360028651600461350d9190614da3565b6135179190615044565b6135219190614e11565b61354d565b6003600286516135369190615044565b6135409190614e11565b600461354c9190614da3565b5b90505f8167ffffffffffffffff81111561356a576135696143f4565b5b6040519080825280601f01601f19166020018201604052801561359c5781602001600182028036833780820191505090505b509050600185016020820187885189016020810180515f82525b82841015613611576003840193508351603f8160121c168701518653600186019550603f81600c1c168701518653600186019550603f8160061c168701518653600186019550603f81168701518653600186019550506135b6565b80825289156136515760038c51066001811461363457600281146136475761364f565b603d6001870353603d600287035361364f565b603d60018703535b505b50505050505080925050505b9392505050565b5f7ff0c57e16840df040f15088dc2f81fe391c3923bec73e23a9662efc9c229c6a005f1b905090565b61369561408f565b6136cb576040517fd7e6bcf800000000000000000000000000000000000000000000000000000000815260040160405180910390fd5b565b6136d561368d565b6136de816127c2565b50565b6136e961368d565b5f73ffffffffffffffffffffffffffffffffffffffff168173ffffffffffffffffffffffffffffffffffffffff1603613759575f6040517f1e4fbdf70000000000000000000000000000000000000000000000000000000081526004016137509190614a46565b60405180910390fd5b613762816125c0565b50565b60608060405191506001825283602083015260408201905060018152826020820152604081016040529250929050565b5f7f01ffc9a7000000000000000000000000000000000000000000000000000000007bffffffffffffffffffffffffffffffffffffffffffffffffffffffff1916827bffffffffffffffffffffffffffffffffffffffffffffffffffffffff1916149050919050565b5f6138076119eb565b9050815183511461385357825182516040517f5b05999100000000000000000000000000000000000000000000000000000000815260040161384a929190614ff0565b60405180910390fd5b5f61385c611cc9565b90505f5f90505b8451811015613a61575f613880828761231790919063ffffffff16565b90505f613896838761231790919063ffffffff16565b90505f73ffffffffffffffffffffffffffffffffffffffff168973ffffffffffffffffffffffffffffffffffffffff16146139bd575f855f015f8481526020019081526020015f205f8b73ffffffffffffffffffffffffffffffffffffffff1673ffffffffffffffffffffffffffffffffffffffff1681526020019081526020015f205490508181101561396757898183856040517f03dee4c500000000000000000000000000000000000000000000000000000000815260040161395e9493929190615990565b60405180910390fd5b818103865f015f8581526020019081526020015f205f8c73ffffffffffffffffffffffffffffffffffffffff1673ffffffffffffffffffffffffffffffffffffffff1681526020019081526020015f2081905550505b5f73ffffffffffffffffffffffffffffffffffffffff168873ffffffffffffffffffffffffffffffffffffffff1614613a545780855f015f8481526020019081526020015f205f8a73ffffffffffffffffffffffffffffffffffffffff1673ffffffffffffffffffffffffffffffffffffffff1681526020019081526020015f205f828254613a4c9190615044565b925050819055505b5050806001019050613863565b506001845103613b1c575f613a7f5f8661231790919063ffffffff16565b90505f613a955f8661231790919063ffffffff16565b90508673ffffffffffffffffffffffffffffffffffffffff168873ffffffffffffffffffffffffffffffffffffffff168473ffffffffffffffffffffffffffffffffffffffff167fc3d58168c5ae7397731d063d5bbf3d657854427343f4c083240f7aacaa2d0f628585604051613b0d929190614ff0565b60405180910390a45050613b9b565b8473ffffffffffffffffffffffffffffffffffffffff168673ffffffffffffffffffffffffffffffffffffffff168273ffffffffffffffffffffffffffffffffffffffff167f4a39dc06d4c0dbc64b70af90fd698a233a518aa5d07e595d983b8c0526c8f7fb8787604051613b92929190614a11565b60405180910390a45b505050505050565b5f8473ffffffffffffffffffffffffffffffffffffffff163b1115613d4a578373ffffffffffffffffffffffffffffffffffffffff1663f23a6e6187878686866040518663ffffffff1660e01b8152600401613c03959493929190615a1b565b6020604051808303815f875af1925050508015613c3e57506040513d601f19601f82011682018060405250810190613c3b9190615a87565b60015b613cbf573d805f8114613c6c576040519150601f19603f3d011682016040523d82523d5f602084013e613c71565b606091505b505f815103613cb757846040517f57f447ce000000000000000000000000000000000000000000000000000000008152600401613cae9190614a46565b60405180910390fd5b805181602001fd5b63f23a6e6160e01b7bffffffffffffffffffffffffffffffffffffffffffffffffffffffff1916817bffffffffffffffffffffffffffffffffffffffffffffffffffffffff191614613d4857846040517f57f447ce000000000000000000000000000000000000000000000000000000008152600401613d3f9190614a46565b60405180910390fd5b505b505050505050565b5f8473ffffffffffffffffffffffffffffffffffffffff163b1115613ef9578373ffffffffffffffffffffffffffffffffffffffff1663bc197c8187878686866040518663ffffffff1660e01b8152600401613db2959493929190615ab2565b6020604051808303815f875af1925050508015613ded57506040513d601f19601f82011682018060405250810190613dea9190615a87565b60015b613e6e573d805f8114613e1b576040519150601f19603f3d011682016040523d82523d5f602084013e613e20565b606091505b505f815103613e6657846040517f57f447ce000000000000000000000000000000000000000000000000000000008152600401613e5d9190614a46565b60405180910390fd5b805181602001fd5b63bc197c8160e01b7bffffffffffffffffffffffffffffffffffffffffffffffffffffffff1916817bffffffffffffffffffffffffffffffffffffffffffffffffffffffff191614613ef757846040517f57f447ce000000000000000000000000000000000000000000000000000000008152600401613eee9190614a46565b60405180910390fd5b505b505050505050565b5f819050919050565b5f8173ffffffffffffffffffffffffffffffffffffffff163b03613f6557806040517f4c9c8ce3000000000000000000000000000000000000000000000000000000008152600401613f5c9190614a46565b60405180910390fd5b80613f917f360894a13ba1a3210667c828492db98dca3e2076cc3735a920a3ca505d382bbc5f1b613f01565b5f015f6101000a81548173ffffffffffffffffffffffffffffffffffffffff021916908373ffffffffffffffffffffffffffffffffffffffff16021790555050565b60605f5f8473ffffffffffffffffffffffffffffffffffffffff1684604051613ffc9190615b18565b5f60405180830381855af49150503d805f8114614034576040519150601f19603f3d011682016040523d82523d5f602084013e614039565b606091505b50915091506140498583836140ad565b9250505092915050565b5f34111561408d576040517fb398979f00000000000000000000000000000000000000000000000000000000815260040160405180910390fd5b565b5f614098612a8e565b5f0160089054906101000a900460ff16905090565b6060826140c2576140bd8261413a565b614132565b5f82511480156140e857505f8473ffffffffffffffffffffffffffffffffffffffff163b145b1561412a57836040517f9996b3150000000000000000000000000000000000000000000000000000000081526004016141219190614a46565b60405180910390fd5b819050614133565b5b9392505050565b5f8151111561414c5780518082602001fd5b6040517fd6bda27500000000000000000000000000000000000000000000000000000000815260040160405180910390fd5b5f604051905090565b5f5ffd5b5f5ffd5b5f73ffffffffffffffffffffffffffffffffffffffff82169050919050565b5f6141b88261418f565b9050919050565b6141c8816141ae565b81146141d2575f5ffd5b50565b5f813590506141e3816141bf565b92915050565b5f819050919050565b6141fb816141e9565b8114614205575f5ffd5b50565b5f81359050614216816141f2565b92915050565b5f5f6040838503121561423257614231614187565b5b5f61423f858286016141d5565b925050602061425085828601614208565b9150509250929050565b614263816141e9565b82525050565b5f60208201905061427c5f83018461425a565b92915050565b5f7fffffffff0000000000000000000000000000000000000000000000000000000082169050919050565b6142b681614282565b81146142c0575f5ffd5b50565b5f813590506142d1816142ad565b92915050565b5f602082840312156142ec576142eb614187565b5b5f6142f9848285016142c3565b91505092915050565b5f8115159050919050565b61431681614302565b82525050565b5f60208201905061432f5f83018461430d565b92915050565b5f81519050919050565b5f82825260208201905092915050565b8281835e5f83830152505050565b5f601f19601f8301169050919050565b5f61437782614335565b614381818561433f565b935061439181856020860161434f565b61439a8161435d565b840191505092915050565b5f6020820190508181035f8301526143bd818461436d565b905092915050565b5f602082840312156143da576143d9614187565b5b5f6143e784828501614208565b91505092915050565b5f5ffd5b7f4e487b71000000000000000000000000000000000000000000000000000000005f52604160045260245ffd5b61442a8261435d565b810181811067ffffffffffffffff82111715614449576144486143f4565b5b80604052505050565b5f61445b61417e565b90506144678282614421565b919050565b5f67ffffffffffffffff821115614486576144856143f4565b5b602082029050602081019050919050565b5f5ffd5b5f6144ad6144a88461446c565b614452565b905080838252602082019050602084028301858111156144d0576144cf614497565b5b835b818110156144f957806144e58882614208565b8452602084019350506020810190506144d2565b5050509392505050565b5f82601f830112614517576145166143f0565b5b813561452784826020860161449b565b91505092915050565b5f5f6040838503121561454657614545614187565b5b5f61455385828601614208565b925050602083013567ffffffffffffffff8111156145745761457361418b565b5b61458085828601614503565b9150509250929050565b5f5f604083850312156145a05761459f614187565b5b5f6145ad85828601614208565b92505060206145be85828601614208565b9150509250929050565b6145d1816141ae565b82525050565b5f6040820190506145ea5f8301856145c8565b6145f7602083018461425a565b9392505050565b5f5ffd5b5f67ffffffffffffffff82111561461c5761461b6143f4565b5b6146258261435d565b9050602081019050919050565b828183375f83830152505050565b5f61465261464d84614602565b614452565b90508281526020810184848401111561466e5761466d6145fe565b5b614679848285614632565b509392505050565b5f82601f830112614695576146946143f0565b5b81356146a5848260208601614640565b91505092915050565b5f5f5f5f5f60a086880312156146c7576146c6614187565b5b5f6146d4888289016141d5565b95505060206146e5888289016141d5565b945050604086013567ffffffffffffffff8111156147065761470561418b565b5b61471288828901614503565b935050606086013567ffffffffffffffff8111156147335761473261418b565b5b61473f88828901614503565b925050608086013567ffffffffffffffff8111156147605761475f61418b565b5b61476c88828901614681565b9150509295509295909350565b5f67ffffffffffffffff821115614793576147926143f4565b5b602082029050602081019050919050565b5f6147b66147b184614779565b614452565b905080838252602082019050602084028301858111156147d9576147d8614497565b5b835b8181101561480257806147ee88826141d5565b8452602084019350506020810190506147db565b5050509392505050565b5f82601f8301126148205761481f6143f0565b5b81356148308482602086016147a4565b91505092915050565b5f5f6040838503121561484f5761484e614187565b5b5f83013567ffffffffffffffff81111561486c5761486b61418b565b5b6148788582860161480c565b925050602083013567ffffffffffffffff8111156148995761489861418b565b5b6148a585828601614503565b9150509250929050565b5f81519050919050565b5f82825260208201905092915050565b5f819050602082019050919050565b6148e1816141e9565b82525050565b5f6148f283836148d8565b60208301905092915050565b5f602082019050919050565b5f614914826148af565b61491e81856148b9565b9350614929836148c9565b805f5b8381101561495957815161494088826148e7565b975061494b836148fe565b92505060018101905061492c565b5085935050505092915050565b5f6020820190508181035f83015261497e818461490a565b905092915050565b5f5f6040838503121561499c5761499b614187565b5b5f6149a9858286016141d5565b925050602083013567ffffffffffffffff8111156149ca576149c961418b565b5b6149d685828601614681565b9150509250929050565b5f819050919050565b6149f2816149e0565b82525050565b5f602082019050614a0b5f8301846149e9565b92915050565b5f6040820190508181035f830152614a29818561490a565b90508181036020830152614a3d818461490a565b90509392505050565b5f602082019050614a595f8301846145c8565b92915050565b614a6881614302565b8114614a72575f5ffd5b50565b5f81359050614a8381614a5f565b92915050565b5f5f60408385031215614a9f57614a9e614187565b5b5f614aac858286016141d5565b9250506020614abd85828601614a75565b9150509250929050565b5f60208284031215614adc57614adb614187565b5b5f614ae9848285016141d5565b91505092915050565b5f6bffffffffffffffffffffffff82169050919050565b614b1281614af2565b82525050565b5f602082019050614b2b5f830184614b09565b92915050565b5f67ffffffffffffffff821115614b4b57614b4a6143f4565b5b614b548261435d565b9050602081019050919050565b5f614b73614b6e84614b31565b614452565b905082815260208101848484011115614b8f57614b8e6145fe565b5b614b9a848285614632565b509392505050565b5f82601f830112614bb657614bb56143f0565b5b8135614bc6848260208601614b61565b91505092915050565b5f60208284031215614be457614be3614187565b5b5f82013567ffffffffffffffff811115614c0157614c0061418b565b5b614c0d84828501614ba2565b91505092915050565b5f5f60408385031215614c2c57614c2b614187565b5b5f614c39858286016141d5565b9250506020614c4a858286016141d5565b9150509250929050565b5f67ffffffffffffffff82169050919050565b614c7081614c54565b8114614c7a575f5ffd5b50565b5f81359050614c8b81614c67565b92915050565b5f60208284031215614ca657614ca5614187565b5b5f614cb384828501614c7d565b91505092915050565b5f5f5f5f5f60a08688031215614cd557614cd4614187565b5b5f614ce2888289016141d5565b9550506020614cf3888289016141d5565b9450506040614d0488828901614208565b9350506060614d1588828901614208565b925050608086013567ffffffffffffffff811115614d3657614d3561418b565b5b614d4288828901614681565b9150509295509295909350565b5f604082019050614d625f8301856145c8565b614d6f60208301846145c8565b9392505050565b7f4e487b71000000000000000000000000000000000000000000000000000000005f52601160045260245ffd5b5f614dad826141e9565b9150614db8836141e9565b9250828202614dc6816141e9565b91508282048414831517614ddd57614ddc614d76565b5b5092915050565b7f4e487b71000000000000000000000000000000000000000000000000000000005f52601260045260245ffd5b5f614e1b826141e9565b9150614e26836141e9565b925082614e3657614e35614de4565b5b828204905092915050565b5f81905092915050565b50565b5f614e595f83614e41565b9150614e6482614e4b565b5f82019050919050565b5f614e7882614e4e565b9150819050919050565b7f426174636820616c7265616479207365740000000000000000000000000000005f82015250565b5f614eb660118361433f565b9150614ec182614e82565b602082019050919050565b5f6020820190508181035f830152614ee381614eaa565b9050919050565b614ef381614c54565b82525050565b5f61ffff82169050919050565b614f0f81614ef9565b82525050565b5f63ffffffff82169050919050565b614f2d81614f15565b82525050565b5f60a082019050614f465f8301886149e9565b614f536020830187614eea565b614f606040830186614f06565b614f6d6060830185614f24565b614f7a6080830184614f24565b9695505050505050565b5f81519050614f92816141f2565b92915050565b5f60208284031215614fad57614fac614187565b5b5f614fba84828501614f84565b91505092915050565b7f4e487b71000000000000000000000000000000000000000000000000000000005f52600160045260245ffd5b5f6040820190506150035f83018561425a565b615010602083018461425a565b9392505050565b7f4e487b71000000000000000000000000000000000000000000000000000000005f52603260045260245ffd5b5f61504e826141e9565b9150615059836141e9565b925082820190508082111561507157615070614d76565b5b92915050565b5f81519050919050565b5f61508b82615077565b6150958185614e41565b93506150a581856020860161434f565b80840191505092915050565b5f6150bc8288615081565b91506150c88287615081565b91506150d48286615081565b91506150e08285615081565b91506150ec8284615081565b91508190509695505050505050565b5f81905092915050565b7f646174613a6170706c69636174696f6e2f6a736f6e3b6261736536342c0000005f82015250565b5f615139601d836150fb565b915061514482615105565b601d82019050919050565b5f61515982614335565b61516381856150fb565b935061517381856020860161434f565b80840191505092915050565b5f6151898261512d565b9150615195828461514f565b915081905092915050565b5f819050919050565b5f819050919050565b5f6151cc6151c76151c2846151a0565b6151a9565b614c54565b9050919050565b6151dc816151b2565b82525050565b5f6020820190506151f55f8301846151d3565b92915050565b7f4e487b71000000000000000000000000000000000000000000000000000000005f52602260045260245ffd5b5f600282049050600182168061523f57607f821691505b602082108103615252576152516151fb565b5b50919050565b5f819050815f5260205f209050919050565b5f6020601f8301049050919050565b5f82821b905092915050565b5f600883026152b47fffffffffffffffffffffffffffffffffffffffffffffffffffffffffffffffff82615279565b6152be8683615279565b95508019841693508086168417925050509392505050565b5f6152f06152eb6152e6846141e9565b6151a9565b6141e9565b9050919050565b5f819050919050565b615309836152d6565b61531d615315826152f7565b848454615285565b825550505050565b5f5f905090565b615334615325565b61533f818484615300565b505050565b5b81811015615362576153575f8261532c565b600181019050615345565b5050565b601f8211156153a75761537881615258565b6153818461526a565b81016020851015615390578190505b6153a461539c8561526a565b830182615344565b50505b505050565b5f82821c905092915050565b5f6153c75f19846008026153ac565b1980831691505092915050565b5f6153df83836153b8565b9150826002028217905092915050565b6153f882615077565b67ffffffffffffffff811115615411576154106143f4565b5b61541b8254615228565b615426828285615366565b5f60209050601f831160018114615457575f8415615445578287015190505b61544f85826153d4565b8655506154b6565b601f19841661546586615258565b5f5b8281101561548c57848901518255600182019150602085019450602081019050615467565b868310156154a957848901516154a5601f8916826153b8565b8355505b6001600288020188555050505b505050505050565b5f6060820190508181035f8301526154d6818661490a565b905081810360208301526154ea818561490a565b90506154f9604083018461425a565b949350505050565b61550a816149e0565b8114615514575f5ffd5b50565b5f8151905061552581615501565b92915050565b5f602082840312156155405761553f614187565b5b5f61554d84828501615517565b91505092915050565b5f819050815f5260205f209050919050565b601f8211156155a95761557a81615556565b6155838461526a565b81016020851015615592578190505b6155a661559e8561526a565b830182615344565b50505b505050565b6155b782614335565b67ffffffffffffffff8111156155d0576155cf6143f4565b5b6155da8254615228565b6155e5828285615568565b5f60209050601f831160018114615616575f8415615604578287015190505b61560e85826153d4565b865550615675565b601f19841661562486615556565b5f5b8281101561564b57848901518255600182019150602085019450602081019050615626565b868310156156685784890151615664601f8916826153b8565b8355505b6001600288020188555050505b505050505050565b5f615687826141e9565b9150615692836141e9565b92508282039050818111156156aa576156a9614d76565b5b92915050565b5f8160011c9050919050565b5f5f8291508390505b6001851115615705578086048111156156e1576156e0614d76565b5b60018516156156f05780820291505b80810290506156fe856156b0565b94506156c5565b94509492505050565b5f8261571d57600190506157d8565b8161572a575f90506157d8565b8160018114615740576002811461574a57615779565b60019150506157d8565b60ff84111561575c5761575b614d76565b5b8360020a91508482111561577357615772614d76565b5b506157d8565b5060208310610133831016604e8410600b84101617156157ae5782820a9050838111156157a9576157a8614d76565b5b6157d8565b6157bb84848460016156bc565b925090508184048111156157d2576157d1614d76565b5b81810290505b9392505050565b5f6157e9826141e9565b91506157f4836141e9565b92506158217fffffffffffffffffffffffffffffffffffffffffffffffffffffffffffffffff848461570e565b905092915050565b5f60ff82169050919050565b5f61583f82615829565b915061584a83615829565b92508261585a57615859614de4565b5b828204905092915050565b5f61586f82615829565b915061587a83615829565b925082820261588881615829565b915080821461589a57615899614d76565b5b5092915050565b5f6158ab82615829565b91506158b683615829565b9250828203905060ff8111156158cf576158ce614d76565b5b92915050565b5f6158ef6158ea6158e584614af2565b6151a9565b6141e9565b9050919050565b6158ff816158d5565b82525050565b5f6040820190506159185f8301856158f6565b615925602083018461425a565b9392505050565b5f615936826141e9565b9150615941836141e9565b92508261595157615950614de4565b5b828206905092915050565b5f61596682615829565b915061597183615829565b9250828201905060ff81111561598a57615989614d76565b5b92915050565b5f6080820190506159a35f8301876145c8565b6159b0602083018661425a565b6159bd604083018561425a565b6159ca606083018461425a565b95945050505050565b5f82825260208201905092915050565b5f6159ed82615077565b6159f781856159d3565b9350615a0781856020860161434f565b615a108161435d565b840191505092915050565b5f60a082019050615a2e5f8301886145c8565b615a3b60208301876145c8565b615a48604083018661425a565b615a55606083018561425a565b8181036080830152615a6781846159e3565b90509695505050505050565b5f81519050615a81816142ad565b92915050565b5f60208284031215615a9c57615a9b614187565b5b5f615aa984828501615a73565b91505092915050565b5f60a082019050615ac55f8301886145c8565b615ad260208301876145c8565b8181036040830152615ae4818661490a565b90508181036060830152615af8818561490a565b90508181036080830152615b0c81846159e3565b90509695505050505050565b5f615b238284615081565b91508190509291505056fe7b226e616d65223a22496e66556e6967654e4654222c2273656c6c65725f6665655f62617369735f706f696e7473223a4142434445464748494a4b4c4d4e4f505152535455565758595a6162636465666768696a6b6c6d6e6f707172737475767778797a303132333435363738392b2f697066733a2f2f516d58727834365977674b7a70746d31647a4e38666353524d464d514c68424d5453773947635a626d567141376e2f7b69647d2e6a736f6ea2646970667358221220b3d32525737182810bcdd13ce5a6742372b99f1053e8acb3982bf14cc3e3329764736f6c634300081d0033",
  "immutableReferences": {
    "619": [
      {
        "length": 32,
        "start": 9004
      },
      {
        "length": 32,
        "start": 9089
      },
      {
        "length": 32,
        "start": 9531
      }
    ]
  },
  "source": "// SPDX-License-Identifier: MIT\npragma solidity 0.8.29;\n\nimport \"@openzeppelin/contracts-upgradeable/token/ERC1155/ERC1155Upgradeable.sol\";\nimport \"@openzeppelin/contracts-upgradeable/access/Ownable2StepUpgradeable.sol\";\nimport \"@openzeppelin/contracts-upgradeable/token/common/ERC2981Upgradeable.sol\";\nimport \"@openzeppelin/contracts-upgradeable/proxy/utils/Initializable.sol\";\nimport \"@openzeppelin/contracts-upgradeable/proxy/utils/UUPSUpgradeable.sol\";\nimport \"./VRFCoordinatorV2Interface.sol\";\nimport \"./VRFConsumerBaseV2Upgradeable.sol\";\nimport \"@openzeppelin/contracts/utils/Base64.sol\";\nimport \"@openzeppelin/contracts/utils/Strings.sol\";\n\ncontract InfUnigeNFT is Initializable, ERC1155Upgradeable, Ownable2StepUpgradeable, ERC2981Upgradeable, UUPSUpgradeable, VRFConsumerBaseV2Upgradeable {\n    \n    uint256 private constant amount = 5; //number of cards to mint at once\n    uint256 public constant numCard = 80; //number of cards\n    uint256 private constant numCopiesNormalCard = 20; //max copies for each student card 20. id: [1-69] + 79 = 70\n    uint256 private constant numCopiesSpecialCard = 10; //max copies for each specials card 10. id: 0 + [70-78] = 10\n    uint256 public constant maxCards = 250; //max number of cards to mint, 60 packs of 5 cards\n\n    uint256 private constant _NOT_ENTERED = 1;\n    uint256 private constant _ENTERED = 2;\n    uint256 private _status = _NOT_ENTERED;\n\n    uint256 public MINT_FEE = 0.05 ether;\n    uint96 public royaltyBasis = 1000;\n\n    \n\n    event Minted(address indexed to, uint256[] ids, uint256[] amounts, uint256 packsOpened);\n    event Withdrawn(address indexed to, uint256 value);\n    event FeeChanged(uint256 newFees);\n    event BaseUriChanged(string baseURI_);\n\n    error DeploymentWithETH(uint256 amount);\n    error MaxCardsReached();\n    error NotEnoughCardsLeft();\n    error InvalidRecipient();\n    error WithdrawFailed();\n    error RefundFailed();\n    error ReentrantCall();\n    error InsufficientETH();\n    error UnexistingUri();\n    error InvalidBatchLength();\n\n\n    modifier noReentrancy() {\n        if(_status != _NOT_ENTERED) revert ReentrantCall();\n        _status = _ENTERED;\n        _;\n        _status = _NOT_ENTERED;\n    }\n\n    // total of 300 packs\n    uint256 private constant batchOrderLength = 1500; //uint16(70 * uint16(numCopiesNormalCard) + 10 * uint16(numCopiesSpecialCard));\n    bytes private batchOrder; \n\n    uint256 private pointer;\n\n    //VRF of sepolia\n    VRFCoordinatorV2Interface COORDINATOR;\n    uint64 private _subscriptionId = 1;\n    uint256 private _latestRequestId = 1;\n    address private _vrfCoordinator = 0x9DdfaCa8183c41ad55329BdeeD9F6A8d53168B1B;\n    bytes32 private _keyHash = 0x787d74caea10b2b357790d5b5247c2f63d1d91572a9846f780606e4d953677ae;\n    uint32 private _callbackGasLimit = 40000;\n    uint16 private _requestConfirmations = 3;\n    uint32 private _numWords =  1;\n\n    // @custom:oz-upgrades-unsafe-allow constructor\n    //payable because fee, solidityscan docet\n    constructor() payable{\n        if (msg.sender == address(0)) revert InvalidRecipient();\n        // Revert and refund ETH if any was sent, payable constructor cost less\n        if (msg.value != 0) {\n            (bool success, ) = msg.sender.call{value: msg.value}(\"\");\n            if(!success) revert RefundFailed();\n            revert DeploymentWithETH(msg.value);\n        }\n        _disableInitializers(); //set the contract state to not initialized\n    }\n\n    function initialize(\n        uint64 subscriptionId\n    ) public initializer {\n        __ERC1155_init(\"ipfs://QmXrx46YwgKzptm1dzN8fcSRMFMQLhBMTSw9GcZbmVqA7n/{id}.json\");\n        __Ownable_init(msg.sender);\n        __ERC2981_init();\n        __UUPSUpgradeable_init();\n\n\n        _subscriptionId = subscriptionId;\n        __VRFConsumerBaseV2Upgradeable_init(_vrfCoordinator);\n        COORDINATOR = VRFCoordinatorV2Interface(_vrfCoordinator);\n\n        pointer = 1;\n        _status = _NOT_ENTERED;\n        MINT_FEE = 0.05 ether;\n        royaltyBasis = 1000;\n\n        //batchOrder = _setBatchOrder();\n        //require(batchOrder.length == batchOrderLength, \"Invalid batch length\");\n        _setDefaultRoyalty(msg.sender, royaltyBasis); // 1000 = 10% in basis points\n    }\n\n    function _authorizeUpgrade(address newImplementation) internal override onlyOwner {}\n\n\n    function requestShuffle() external onlyOwner returns (uint256 requestId) {\n        require(pointer == 1, \"Batch already set\");\n        requestId = COORDINATOR.requestRandomWords(\n            _keyHash,\n            _subscriptionId,\n            _requestConfirmations,\n            _callbackGasLimit,\n            _numWords\n        );\n        _latestRequestId = requestId;\n    }\n\n    function fulfillRandomWords(uint256, uint256[] memory randomWords) internal override {\n        bytes memory batch = new bytes(batchOrderLength);\n        uint256 index;\n        uint256 copies;\n\n        for (uint8 id; id < numCard;) {\n            copies = _isSpecial(uint256(id))? numCopiesSpecialCard : numCopiesNormalCard;\n            for (uint256 j; j < copies;) {\n                batch[index] = bytes1(id);\n                unchecked { ++j; ++index; }\n            }\n            unchecked { ++id; }\n        }\n\n        batchOrder = _shuffleWithSeed(batch, randomWords[0]);\n        if(batchOrder.length != batchOrderLength) revert InvalidBatchLength();\n    }\n\n    function _shuffleWithSeed(bytes memory batch, uint256 seed) private pure returns (bytes memory) {\n        uint256 _length = batch.length;\n        for (uint256 i; i < _length;) {\n            uint256 j = i + uint256(keccak256(abi.encode(seed, i))) % (_length - i);\n            (batch[i], batch[j]) = (batch[j], batch[i]);\n            unchecked { ++i; }\n        }\n        return batch;\n    }\n\n    function _isSpecial(uint256 id) private pure returns (bool) {\n        return ((id >= 70 && id <= 78) || (id == 0));\n    }\n\n    function _isInPos(uint8 id, uint8[] memory ids, uint256 length) private pure returns (int256 pos) {\n        pos =-1;\n        for (uint256 i; i < length;) {\n            if (ids[i] == id) {\n                pos = int256(i);\n                break;\n            }\n            unchecked { ++i; }\n        }\n    }\n\n    \n    function changeURI(string memory baseURI_) public onlyOwner {\n        _setURI(baseURI_);\n        emit BaseUriChanged(baseURI_);\n    }\n\n    function supportsInterface(bytes4 interfaceId) public view virtual override(ERC1155Upgradeable, ERC2981Upgradeable) returns (bool) {\n        return super.supportsInterface(interfaceId);\n    }\n\n    //payable because will lower the gas cost, solidityscan docet\n    function setMintFee(uint256 fee) external payable onlyOwner {\n        if (fee != MINT_FEE){\n            MINT_FEE = fee;\n        }\n        emit FeeChanged(fee);\n    }\n\n\n    function mint(address to, uint256 packs) private {\n        if (to == address(0)) revert InvalidRecipient();\n        uint256 _amount = amount;\n        _amount = _amount * packs;\n        uint256 _pointer = pointer == 1? 0 : pointer;\n        bytes storage _batchOrder = batchOrder;\n        if (_pointer + _amount >= _batchOrder.length) revert NotEnoughCardsLeft();\n        uint256 totalNFTs = getTotalNFTsOf(to);\n        if (totalNFTs + _amount >= maxCards) revert MaxCardsReached();\n        \n\n        // Overestimate max size to amount, since we may push less\n        uint8[] memory tempIds = new uint8[](_amount);\n        uint256[] memory tempAmounts = new uint256[](_amount);\n        uint256 uniqueCount;\n        \n        for (uint256 i; i < _amount;) {\n            bytes1 cardId = _batchOrder[_pointer + i];\n            int256 pos = _isInPos(uint8(cardId), tempIds, uniqueCount);\n            if (pos == -1) {\n                tempIds[uniqueCount] = uint8(cardId);\n                tempAmounts[uniqueCount] = 1;\n                unchecked { ++uniqueCount;}\n            } else {\n                unchecked { ++tempAmounts[uint256(pos)];}\n            }\n            unchecked { ++i; }\n        }\n\n        pointer = _pointer + _amount;\n\n        // Resize arrays to uniqueCount\n        uint256[] memory ids = new uint256[](uniqueCount);\n        uint256[] memory amounts = new uint256[](uniqueCount);\n        for (uint256 i; i < uniqueCount;) {\n            ids[i] = tempIds[i];\n            amounts[i] = tempAmounts[i];\n            unchecked{ ++i; }\n        }\n\n        _mintBatch(to, ids, amounts, \"\");\n        emit Minted(to, ids, amounts, packs);\n    }\n\n    \n\n    /// @notice Mint NFTs for the sender, paying the minting fee\n    /// @dev Public minting allowed, no access restriction\n    function mint4To(address to, uint256 packsToOpen) public payable noReentrancy {\n        assert(packsToOpen > 1 && packsToOpen <= maxCards/amount); //max packs 60\n        if(msg.value < MINT_FEE * packsToOpen) revert InsufficientETH();\n        mint(to, packsToOpen);\n    }\n\n    /// @notice Mint NFTs for the sender, paying the minting fee\n    /// @dev Public minting allowed, no access restriction\n    function mint4Me(uint256 packsToOpen) external payable noReentrancy {\n        mint4To(msg.sender, packsToOpen);\n    }\n    \n    function getTotalNFTsOf(address user) public view returns (uint256 count) {\n        for (uint256 i; i < numCard;) {\n            uint256 bal = balanceOf(user, i);\n            if (bal > 0) {\n                count = count + bal;\n            }\n            unchecked{ ++i; }\n        }\n    } \n\n    function getTotalMyNFTs() external view returns (uint256) {\n        return getTotalNFTsOf(msg.sender);\n    }\n\n    \n    function getNFTsOf(address user) public view returns (uint256[] memory, uint256[] memory) {\n        uint256 count;\n        uint256 _numCard = numCard;\n        for (uint256 i; i < _numCard;) {\n            if (balanceOf(user, i) > 0) {\n                unchecked { ++count; }\n            }\n            unchecked{ ++i;}\n        }\n\n        uint256[] memory ids = new uint256[](count);\n        uint256[] memory amounts = new uint256[](count);\n        uint256 index;\n\n        for (uint256 i; i < _numCard;) {\n            uint256 bal = balanceOf(user, i);\n            if (bal > 0) {\n                ids[index] = i;\n                amounts[index] = bal;\n                unchecked{ ++index; }\n            }\n            unchecked{ ++i; }\n        }\n\n        return (ids, amounts);\n    }\n\n    function getMyNFTs() external view returns (uint256[] memory, uint256[] memory) {\n        return getNFTsOf(msg.sender);\n    }\n\n\n    function uri(uint256 id) public view virtual override returns (string memory) {\n        if(id >= numCard) revert UnexistingUri();\n        return super.uri(id);\n    }\n\n    function name() public pure returns (string memory) {\n        return \"InfUnigeNFT\";\n    }\n\n\n    //payable because will lower the gas cost, solidityscan docet\n    function withdraw() external payable onlyOwner {\n        uint256 value = address(this).balance;\n        (bool success, ) = payable(owner()).call{value: value}(\"\");\n        if(!success) revert WithdrawFailed();\n        emit Withdrawn(msg.sender, value);\n    }\n\n\n    function toAsciiString(address x) private pure returns (string memory) {\n        bytes memory s = new bytes(40);\n        for (uint256 i; i < 20;) {\n            bytes1 b = bytes1(uint8(uint(uint160(x)) / (2**(8*(19 - i)))));\n            bytes1 hi = bytes1(uint8(b) / 16);\n            bytes1 lo = bytes1(uint8(b) - 16 * uint8(hi));\n            s[2*i] = char(hi);\n            s[2*i+1] = char(lo);     \n            unchecked{ ++i;}       \n        }\n        return string(s);\n    }\n\n    function char(bytes1 b) internal pure returns (bytes1 c) {\n        if (uint8(b) <= 9) return bytes1(uint8(b) + 0x30);\n        else return bytes1(uint8(b) + 0x57);\n    }\n\n    function contractURI() public view returns (string memory) {\n        return string(\n            abi.encodePacked(\n                \"data:application/json;base64,\",\n                Base64.encode(\n                    bytes.concat(\n                        bytes('{\"name\":\"InfUnigeNFT\",\"seller_fee_basis_points\":'),\n                        bytes(Strings.toString(royaltyBasis)),\n                        bytes(',\"fee_recipient\":\"0x'),\n                        bytes(toAsciiString(owner())),\n                        bytes('\"}')\n                    )\n                )\n            )\n        );\n    }\n}\n\n    \n\n",
  "sourcePath": "/app/contracts/contractAsProxyOracle.sol",
  "compiler": {
    "name": "solc",
    "version": "0.8.29+commit.ab55807c.Emscripten.clang"
  },
  "schemaVersion": "3.4.16",
  "updatedAt": "2025-04-22T09:37:44.958Z",
  "devdoc": {
    "errors": {
      "AddressEmptyCode(address)": [
        {
          "details": "There's no code at `target` (it is not a contract)."
        }
      ],
      "ERC1155InsufficientBalance(address,uint256,uint256,uint256)": [
        {
          "details": "Indicates an error related to the current `balance` of a `sender`. Used in transfers.",
          "params": {
            "balance": "Current balance for the interacting account.",
            "needed": "Minimum amount required to perform a transfer.",
            "sender": "Address whose tokens are being transferred.",
            "tokenId": "Identifier number of a token."
          }
        }
      ],
      "ERC1155InvalidApprover(address)": [
        {
          "details": "Indicates a failure with the `approver` of a token to be approved. Used in approvals.",
          "params": {
            "approver": "Address initiating an approval operation."
          }
        }
      ],
      "ERC1155InvalidArrayLength(uint256,uint256)": [
        {
          "details": "Indicates an array length mismatch between ids and values in a safeBatchTransferFrom operation. Used in batch transfers.",
          "params": {
            "idsLength": "Length of the array of token identifiers",
            "valuesLength": "Length of the array of token amounts"
          }
        }
      ],
      "ERC1155InvalidOperator(address)": [
        {
          "details": "Indicates a failure with the `operator` to be approved. Used in approvals.",
          "params": {
            "operator": "Address that may be allowed to operate on tokens without being their owner."
          }
        }
      ],
      "ERC1155InvalidReceiver(address)": [
        {
          "details": "Indicates a failure with the token `receiver`. Used in transfers.",
          "params": {
            "receiver": "Address to which tokens are being transferred."
          }
        }
      ],
      "ERC1155InvalidSender(address)": [
        {
          "details": "Indicates a failure with the token `sender`. Used in transfers.",
          "params": {
            "sender": "Address whose tokens are being transferred."
          }
        }
      ],
      "ERC1155MissingApprovalForAll(address,address)": [
        {
          "details": "Indicates a failure with the `operator`s approval. Used in transfers.",
          "params": {
            "operator": "Address that may be allowed to operate on tokens without being their owner.",
            "owner": "Address of the current owner of a token."
          }
        }
      ],
      "ERC1967InvalidImplementation(address)": [
        {
          "details": "The `implementation` of the proxy is invalid."
        }
      ],
      "ERC1967NonPayable()": [
        {
          "details": "An upgrade function sees `msg.value > 0` that may be lost."
        }
      ],
      "ERC2981InvalidDefaultRoyalty(uint256,uint256)": [
        {
          "details": "The default royalty set is invalid (eg. (numerator / denominator) >= 1)."
        }
      ],
      "ERC2981InvalidDefaultRoyaltyReceiver(address)": [
        {
          "details": "The default royalty receiver is invalid."
        }
      ],
      "ERC2981InvalidTokenRoyalty(uint256,uint256,uint256)": [
        {
          "details": "The royalty set for a specific `tokenId` is invalid (eg. (numerator / denominator) >= 1)."
        }
      ],
      "ERC2981InvalidTokenRoyaltyReceiver(uint256,address)": [
        {
          "details": "The royalty receiver for `tokenId` is invalid."
        }
      ],
      "FailedCall()": [
        {
          "details": "A call to an address target failed. The target may have reverted."
        }
      ],
      "InvalidInitialization()": [
        {
          "details": "The contract is already initialized."
        }
      ],
      "NotInitializing()": [
        {
          "details": "The contract is not initializing."
        }
      ],
      "OwnableInvalidOwner(address)": [
        {
          "details": "The owner is not a valid owner account. (eg. `address(0)`)"
        }
      ],
      "OwnableUnauthorizedAccount(address)": [
        {
          "details": "The caller account is not authorized to perform an operation."
        }
      ],
      "UUPSUnauthorizedCallContext()": [
        {
          "details": "The call is from an unauthorized context."
        }
      ],
      "UUPSUnsupportedProxiableUUID(bytes32)": [
        {
          "details": "The storage `slot` is unsupported as a UUID."
        }
      ]
    },
    "events": {
      "ApprovalForAll(address,address,bool)": {
        "details": "Emitted when `account` grants or revokes permission to `operator` to transfer their tokens, according to `approved`."
      },
      "Initialized(uint64)": {
        "details": "Triggered when the contract has been initialized or reinitialized."
      },
      "TransferBatch(address,address,address,uint256[],uint256[])": {
        "details": "Equivalent to multiple {TransferSingle} events, where `operator`, `from` and `to` are the same for all transfers."
      },
      "TransferSingle(address,address,address,uint256,uint256)": {
        "details": "Emitted when `value` amount of tokens of type `id` are transferred from `from` to `to` by `operator`."
      },
      "URI(string,uint256)": {
        "details": "Emitted when the URI for token type `id` changes to `value`, if it is a non-programmatic URI. If an {URI} event was emitted for `id`, the standard https://eips.ethereum.org/EIPS/eip-1155#metadata-extensions[guarantees] that `value` will equal the value returned by {IERC1155MetadataURI-uri}."
      },
      "Upgraded(address)": {
        "details": "Emitted when the implementation is upgraded."
      }
    },
    "kind": "dev",
    "methods": {
      "acceptOwnership()": {
        "details": "The new owner accepts the ownership transfer."
      },
      "balanceOf(address,uint256)": {
        "details": "See {IERC1155-balanceOf}."
      },
      "balanceOfBatch(address[],uint256[])": {
        "details": "See {IERC1155-balanceOfBatch}. Requirements: - `accounts` and `ids` must have the same length."
      },
      "isApprovedForAll(address,address)": {
        "details": "See {IERC1155-isApprovedForAll}."
      },
      "mint4Me(uint256)": {
        "details": "Public minting allowed, no access restriction"
      },
      "mint4To(address,uint256)": {
        "details": "Public minting allowed, no access restriction"
      },
      "owner()": {
        "details": "Returns the address of the current owner."
      },
      "pendingOwner()": {
        "details": "Returns the address of the pending owner."
      },
      "proxiableUUID()": {
        "details": "Implementation of the ERC-1822 {proxiableUUID} function. This returns the storage slot used by the implementation. It is used to validate the implementation's compatibility when performing an upgrade. IMPORTANT: A proxy pointing at a proxiable contract should not be considered proxiable itself, because this risks bricking a proxy that upgrades to it, by delegating to itself until out of gas. Thus it is critical that this function revert if invoked through a proxy. This is guaranteed by the `notDelegated` modifier."
      },
      "renounceOwnership()": {
        "details": "Leaves the contract without owner. It will not be possible to call `onlyOwner` functions. Can only be called by the current owner. NOTE: Renouncing ownership will leave the contract without an owner, thereby disabling any functionality that is only available to the owner."
      },
      "royaltyInfo(uint256,uint256)": {
        "details": "Returns how much royalty is owed and to whom, based on a sale price that may be denominated in any unit of exchange. The royalty amount is denominated and should be paid in that same unit of exchange. NOTE: ERC-2981 allows setting the royalty to 100% of the price. In that case all the price would be sent to the royalty receiver and 0 tokens to the seller. Contracts dealing with royalty should consider empty transfers."
      },
      "safeBatchTransferFrom(address,address,uint256[],uint256[],bytes)": {
        "details": "See {IERC1155-safeBatchTransferFrom}."
      },
      "safeTransferFrom(address,address,uint256,uint256,bytes)": {
        "details": "See {IERC1155-safeTransferFrom}."
      },
      "setApprovalForAll(address,bool)": {
        "details": "See {IERC1155-setApprovalForAll}."
      },
      "transferOwnership(address)": {
        "details": "Starts the ownership transfer of the contract to a new account. Replaces the pending transfer if there is one. Can only be called by the current owner. Setting `newOwner` to the zero address is allowed; this can be used to cancel an initiated ownership transfer."
      },
      "upgradeToAndCall(address,bytes)": {
        "custom:oz-upgrades-unsafe-allow-reachable": "delegatecall",
        "details": "Upgrade the implementation of the proxy to `newImplementation`, and subsequently execute the function call encoded in `data`. Calls {_authorizeUpgrade}. Emits an {Upgraded} event."
      }
    },
    "version": 1
  },
  "userdoc": {
    "kind": "user",
    "methods": {
      "mint4Me(uint256)": {
        "notice": "Mint NFTs for the sender, paying the minting fee"
      },
      "mint4To(address,uint256)": {
        "notice": "Mint NFTs for the sender, paying the minting fee"
      }
    },
    "version": 1
  }
}